{
  "contractName": "MultiSig",
  "abi": [
    {
      "constant": true,
      "inputs": [
        {
          "name": "",
          "type": "address"
        }
      ],
      "name": "validOwners",
      "outputs": [
        {
          "name": "",
          "type": "bool"
        }
      ],
      "payable": false,
      "stateMutability": "view",
      "type": "function"
    },
    {
      "constant": true,
      "inputs": [
        {
          "name": "",
          "type": "uint256"
        }
      ],
      "name": "owners",
      "outputs": [
        {
          "name": "",
          "type": "address"
        }
      ],
      "payable": false,
      "stateMutability": "view",
      "type": "function"
    },
    {
      "constant": true,
      "inputs": [
        {
          "name": "",
          "type": "uint256"
        },
        {
          "name": "",
          "type": "address"
        }
      ],
      "name": "confirmations",
      "outputs": [
        {
          "name": "",
          "type": "bool"
        }
      ],
      "payable": false,
      "stateMutability": "view",
      "type": "function"
    },
    {
      "constant": true,
      "inputs": [
        {
          "name": "_pending",
          "type": "bool"
        },
        {
          "name": "_executed",
          "type": "bool"
        }
      ],
      "name": "getTransactionCount",
      "outputs": [
        {
          "name": "",
          "type": "uint256"
        }
      ],
      "payable": false,
      "stateMutability": "view",
      "type": "function"
    },
    {
      "constant": true,
      "inputs": [
        {
          "name": "_transactionId",
          "type": "uint256"
        }
      ],
      "name": "isConfirmed",
      "outputs": [
        {
          "name": "",
          "type": "bool"
        }
      ],
      "payable": false,
      "stateMutability": "view",
      "type": "function"
    },
    {
      "constant": true,
      "inputs": [
        {
          "name": "",
          "type": "uint256"
        }
      ],
      "name": "transactions",
      "outputs": [
        {
          "name": "destinationAddress",
          "type": "address"
        },
        {
          "name": "valueInWei",
          "type": "uint256"
        },
        {
          "name": "transactionStatus",
          "type": "bool"
        },
        {
          "name": "data",
          "type": "bytes"
        }
      ],
      "payable": false,
      "stateMutability": "view",
      "type": "function"
    },
    {
      "constant": true,
      "inputs": [
        {
          "name": "_pending",
          "type": "bool"
        },
        {
          "name": "_executed",
          "type": "bool"
        }
      ],
      "name": "getTransactionIds",
      "outputs": [
        {
          "name": "",
          "type": "uint256[]"
        }
      ],
      "payable": false,
      "stateMutability": "view",
      "type": "function"
    },
    {
      "constant": true,
      "inputs": [],
      "name": "getOwners",
      "outputs": [
        {
          "name": "",
          "type": "address[]"
        }
      ],
      "payable": false,
      "stateMutability": "view",
      "type": "function"
    },
    {
      "constant": true,
      "inputs": [
        {
          "name": "_transactionId",
          "type": "uint256"
        }
      ],
      "name": "getConfirmations",
      "outputs": [
        {
          "name": "confirmators",
          "type": "address[]"
        }
      ],
      "payable": false,
      "stateMutability": "view",
      "type": "function"
    },
    {
      "constant": true,
      "inputs": [],
      "name": "transactionCount",
      "outputs": [
        {
          "name": "",
          "type": "uint256"
        }
      ],
      "payable": false,
      "stateMutability": "view",
      "type": "function"
    },
    {
      "constant": false,
      "inputs": [
        {
          "name": "txId",
          "type": "uint256"
        }
      ],
      "name": "confirmTransaction",
      "outputs": [],
      "payable": false,
      "stateMutability": "nonpayable",
      "type": "function"
    },
    {
      "constant": false,
      "inputs": [
        {
          "name": "_destinationAddress",
          "type": "address"
        },
        {
          "name": "_value",
          "type": "uint256"
        },
        {
          "name": "_data",
          "type": "bytes"
        }
      ],
      "name": "submitTransaction",
      "outputs": [],
      "payable": false,
      "stateMutability": "nonpayable",
      "type": "function"
    },
    {
      "constant": true,
      "inputs": [],
      "name": "required",
      "outputs": [
        {
          "name": "",
          "type": "uint256"
        }
      ],
      "payable": false,
      "stateMutability": "view",
      "type": "function"
    },
    {
      "constant": false,
      "inputs": [
        {
          "name": "_transactionId",
          "type": "uint256"
        }
      ],
      "name": "executeTransaction",
      "outputs": [],
      "payable": false,
      "stateMutability": "nonpayable",
      "type": "function"
    },
    {
      "inputs": [
        {
          "name": "_owners",
          "type": "address[]"
        },
        {
          "name": "_required",
          "type": "uint256"
        }
      ],
      "payable": false,
      "stateMutability": "nonpayable",
      "type": "constructor"
    },
    {
      "payable": true,
      "stateMutability": "payable",
      "type": "fallback"
    }
  ],
  "bytecode": "0x606060405234156200001057600080fd5b604051620013a9380380620013a98339810160405280805182019190602001805190602001909190505060008282600082511115156200004f57600080fd5b6000811115156200005f57600080fd5b815181111515156200007057600080fd5b8460009080519060200190620000889291906200014e565b50600092505b6000805490508310156200013c576001600560008086815481101515620000b157fe5b906000526020600020900160009054906101000a900473ffffffffffffffffffffffffffffffffffffffff1673ffffffffffffffffffffffffffffffffffffffff1673ffffffffffffffffffffffffffffffffffffffff16815260200190815260200160002060006101000a81548160ff02191690831515021790555082806001019350506200008e565b83600181905550505050505062000223565b828054828255906000526020600020908101928215620001ca579160200282015b82811115620001c95782518260006101000a81548173ffffffffffffffffffffffffffffffffffffffff021916908373ffffffffffffffffffffffffffffffffffffffff160217905550916020019190600101906200016f565b5b509050620001d99190620001dd565b5090565b6200022091905b808211156200021c57600081816101000a81549073ffffffffffffffffffffffffffffffffffffffff021916905550600101620001e4565b5090565b90565b61117680620002336000396000f3006060604052600436106100d0576000357c0100000000000000000000000000000000000000000000000000000000900463ffffffff1680630210ef84146100d2578063025e7c27146101235780633411c81c1461018657806354741525146101e0578063784547a7146102245780639ace38c21461025f5780639de5dcd61461035d578063a0e67e2b146103e2578063b5dc40c31461044c578063b77bf600146104c4578063c01a8c84146104ed578063c642747414610510578063dc8452cd14610595578063ee22610b146105be575b005b34156100dd57600080fd5b610109600480803573ffffffffffffffffffffffffffffffffffffffff169060200190919050506105e1565b604051808215151515815260200191505060405180910390f35b341561012e57600080fd5b6101446004808035906020019091905050610601565b604051808273ffffffffffffffffffffffffffffffffffffffff1673ffffffffffffffffffffffffffffffffffffffff16815260200191505060405180910390f35b341561019157600080fd5b6101c6600480803590602001909190803573ffffffffffffffffffffffffffffffffffffffff16906020019091905050610640565b604051808215151515815260200191505060405180910390f35b34156101eb57600080fd5b61020e60048080351515906020019091908035151590602001909190505061066f565b6040518082815260200191505060405180910390f35b341561022f57600080fd5b6102456004808035906020019091905050610716565b604051808215151515815260200191505060405180910390f35b341561026a57600080fd5b610280600480803590602001909190505061073a565b604051808573ffffffffffffffffffffffffffffffffffffffff1673ffffffffffffffffffffffffffffffffffffffff168152602001848152602001831515151581526020018060200182810382528381815460018160011615610100020316600290048152602001915080546001816001161561010002031660029004801561034b5780601f106103205761010080835404028352916020019161034b565b820191906000526020600020905b81548152906001019060200180831161032e57829003601f168201915b50509550505050505060405180910390f35b341561036857600080fd5b61038b600480803515159060200190919080351515906020019091905050610796565b6040518080602001828103825283818151815260200191508051906020019060200280838360005b838110156103ce5780820151818401526020810190506103b3565b505050509050019250505060405180910390f35b34156103ed57600080fd5b6103f5610949565b6040518080602001828103825283818151815260200191508051906020019060200280838360005b8381101561043857808201518184015260208101905061041d565b505050509050019250505060405180910390f35b341561045757600080fd5b61046d60048080359060200190919050506109dd565b6040518080602001828103825283818151815260200191508051906020019060200280838360005b838110156104b0578082015181840152602081019050610495565b505050509050019250505060405180910390f35b34156104cf57600080fd5b6104d7610c28565b6040518082815260200191505060405180910390f35b34156104f857600080fd5b61050e6004808035906020019091905050610c2e565b005b341561051b57600080fd5b610593600480803573ffffffffffffffffffffffffffffffffffffffff1690602001909190803590602001909190803590602001908201803590602001908080601f01602080910402602001604051908101604052809392919081815260200183838082843782019150505050505091905050610dec565b005b34156105a057600080fd5b6105a8610e0a565b6040518082815260200191505060405180910390f35b34156105c957600080fd5b6105df6004808035906020019091905050610e10565b005b60056020528060005260406000206000915054906101000a900460ff1681565b60008181548110151561061057fe5b90600052602060002090016000915054906101000a900473ffffffffffffffffffffffffffffffffffffffff1681565b60046020528160005260406000206020528060005260406000206000915091509054906101000a900460ff1681565b60008060008090505b60025481101561070b578480156106b057506003600082815260200190815260200160002060020160009054906101000a900460ff16155b156106c25781806001019250506106fe565b8380156106ef57506003600082815260200190815260200160002060020160009054906101000a900460ff165b156106fd5781806001019250505b5b8080600101915050610678565b819250505092915050565b600061072061107d565b610729836109dd565b905060015481511015915050919050565b60036020528060005260406000206000915090508060000160009054906101000a900473ffffffffffffffffffffffffffffffffffffffff16908060010154908060020160009054906101000a900460ff169080600301905084565b61079e611091565b6000806107a9611091565b600080600093505b600254841015610844578780156107e957506003600085815260200190815260200160002060020160009054906101000a900460ff16155b156107fb578480600101955050610837565b86801561082857506003600085815260200190815260200160002060020160009054906101000a900460ff165b156108365784806001019550505b5b83806001019450506107b1565b846040518059106108525750595b9080825280602002602001820160405250925060009150600090505b60025481101561093b578780156108a657506003600082815260200190815260200160002060020160009054906101000a900460ff16155b156108d5578083838151811015156108ba57fe5b9060200190602002018181525050818060010192505061092e565b86801561090257506003600082815260200190815260200160002060020160009054906101000a900460ff165b1561092d5780838381518110151561091657fe5b906020019060200201818152505081806001019250505b5b808060010191505061086e565b829550505050505092915050565b61095161107d565b60008054806020026020016040519081016040528092919081815260200182805480156109d357602002820191906000526020600020905b8160009054906101000a900473ffffffffffffffffffffffffffffffffffffffff1673ffffffffffffffffffffffffffffffffffffffff1681526020019060010190808311610989575b5050505050905090565b6109e561107d565b60008060008060009350600092505b600080549050831015610ab3576004600087815260200190815260200160002060008085815481101515610a2457fe5b906000526020600020900160009054906101000a900473ffffffffffffffffffffffffffffffffffffffff1673ffffffffffffffffffffffffffffffffffffffff1673ffffffffffffffffffffffffffffffffffffffff16815260200190815260200160002060009054906101000a900460ff1615610aa65783806001019450505b82806001019350506109f4565b83604051805910610ac15750595b9080825280602002602001820160405250945060009150600090505b600080549050811015610c1f576004600087815260200190815260200160002060008083815481101515610b0d57fe5b906000526020600020900160009054906101000a900473ffffffffffffffffffffffffffffffffffffffff1673ffffffffffffffffffffffffffffffffffffffff1673ffffffffffffffffffffffffffffffffffffffff16815260200190815260200160002060009054906101000a900460ff1615610c1257600081815481101515610b9557fe5b906000526020600020900160009054906101000a900473ffffffffffffffffffffffffffffffffffffffff168583806001019450815181101515610bd557fe5b9060200190602002019073ffffffffffffffffffffffffffffffffffffffff16908173ffffffffffffffffffffffffffffffffffffffff16815250505b8080600101915050610add565b50505050919050565b60025481565b600560003373ffffffffffffffffffffffffffffffffffffffff1673ffffffffffffffffffffffffffffffffffffffff16815260200190815260200160002060009054906101000a900460ff161515610c8657600080fd5b600073ffffffffffffffffffffffffffffffffffffffff166003600083815260200190815260200160002060000160009054906101000a900473ffffffffffffffffffffffffffffffffffffffff1673ffffffffffffffffffffffffffffffffffffffff1614151515610cf857600080fd5b600015156004600083815260200190815260200160002060003373ffffffffffffffffffffffffffffffffffffffff1673ffffffffffffffffffffffffffffffffffffffff16815260200190815260200160002060009054906101000a900460ff161515141515610d6857600080fd5b60016004600083815260200190815260200160002060003373ffffffffffffffffffffffffffffffffffffffff1673ffffffffffffffffffffffffffffffffffffffff16815260200190815260200160002060006101000a81548160ff021916908315150217905550610dda81610716565b15610de957610de881610e10565b5b50565b6000610df9848484610f3e565b9050610e0481610c2e565b50505050565b60015481565b6000610e1b82610716565b1515610e2657600080fd5b6003600083815260200190815260200160002090508060020160009054906101000a900460ff16151515610e5957600080fd5b8060000160009054906101000a900473ffffffffffffffffffffffffffffffffffffffff1673ffffffffffffffffffffffffffffffffffffffff168160010154826003016040518082805460018160011615610100020316600290048015610f025780601f10610ed757610100808354040283529160200191610f02565b820191906000526020600020905b815481529060010190602001808311610ee557829003601f168201915b505091505060006040518083038185876187965a03f1925050505060018160020160006101000a81548160ff0219169083151502179055505050565b60008073ffffffffffffffffffffffffffffffffffffffff168473ffffffffffffffffffffffffffffffffffffffff1614151515610f7b57600080fd5b6080604051908101604052808573ffffffffffffffffffffffffffffffffffffffff1681526020018481526020016000151581526020018381525060036000600254815260200190815260200160002060008201518160000160006101000a81548173ffffffffffffffffffffffffffffffffffffffff021916908373ffffffffffffffffffffffffffffffffffffffff1602179055506020820151816001015560408201518160020160006101000a81548160ff02191690831515021790555060608201518160030190805190602001906110589291906110a5565b5090505060026000815480929190600101919050555060016002540390509392505050565b602060405190810160405280600081525090565b602060405190810160405280600081525090565b828054600181600116156101000203166002900490600052602060002090601f016020900481019282601f106110e657805160ff1916838001178555611114565b82800160010185558215611114579182015b828111156111135782518255916020019190600101906110f8565b5b5090506111219190611125565b5090565b61114791905b8082111561114357600081600090555060010161112b565b5090565b905600a165627a7a72305820a771316eff5577925b5875d22f736acf88d57790c45c50c9d4572301a7664a5d0029",
  "source": "pragma solidity ^0.4.18;\n\ncontract MultiSig {\n  address[] public owners;\n  uint256 public required;\n\n  struct Transaction {\n    address destinationAddress;\n    uint256 valueInWei;\n    bool transactionStatus;\n    bytes data;\n  }\n  uint256 public transactionCount;\n  mapping (uint=>Transaction) public transactions;\n  mapping (uint=>mapping(address=>bool)) public confirmations;\n  mapping (address =>bool) public validOwners;\n\n  modifier handleEdgeCases(address[] _owners, uint _required) {\n    require(_owners.length > 0);\n    require(_required > 0);\n    require(_required <= _owners.length);\n    _;\n  }\n\n  function MultiSig(address[] _owners, uint256 _required) handleEdgeCases(_owners, _required) public {\n    owners = _owners;\n    for(uint i=0;i<owners.length;i++){\n      validOwners[owners[i]] = true;\n    }\n    required = _required;\n  }\n\n  function addTransaction(address _dest, uint256 _value, bytes _data) internal returns (uint256) {\n    require(_dest != address(0));\n\n    transactions[transactionCount] = Transaction (\n      _dest, _value, false, _data\n    );\n\n    transactionCount++;\n    return transactionCount - 1;\n  }\n\n  modifier isValidOwner() {\n    require(validOwners[msg.sender]);\n    _;\n  }\n\n  function confirmTransaction(uint txId) public isValidOwner {\n    require(transactions[txId].destinationAddress!=address(0));\n    require(confirmations[txId][msg.sender]==false);\n    confirmations[txId][msg.sender] = true;\n    if(isConfirmed(txId)) {\n      executeTransaction(txId);\n    }\n  }\n\n  function getConfirmations(uint _transactionId) public view returns(address[] memory confirmators) {\n    uint count = 0;\n    for (uint j = 0; j<owners.length; j++) {\n      if (confirmations[_transactionId][owners[j]]) {\n        count ++;\n      }\n    }\n    confirmators = new address[](count);\n    uint ind = 0;\n    for (uint i = 0; i<owners.length; i++) {\n      if (confirmations[_transactionId][owners[i]]) {\n        confirmators[ind++] = owners[i];\n      }\n    }\n  }\n\n  function () public payable {\n\n  }\n\n  function isConfirmed(uint256 _transactionId) public constant returns (bool) {\n    address[] memory confirmators = getConfirmations(_transactionId);\n    return (confirmators.length >= required);\n  }\n\n  function submitTransaction(address _destinationAddress,uint256 _value, bytes _data) public {\n    uint256 txnID = addTransaction(_destinationAddress,_value, _data);\n    confirmTransaction(txnID);\n  }\n\n  function executeTransaction(uint256 _transactionId) public {\n    require(isConfirmed(_transactionId));\n    Transaction storage txn = transactions[_transactionId];\n    require(!txn.transactionStatus);\n    txn.destinationAddress.call.value(txn.valueInWei)(txn.data);\n    txn.transactionStatus = true;\n  }\n\n  function getTransactionCount(bool _pending, bool _executed) public view returns(uint) {\n    uint count;\n    for(uint i = 0; i < transactionCount; i++) {\n        if(_pending && !transactions[i].transactionStatus) {\n            count++;\n        }\n        else if(_executed && transactions[i].transactionStatus) {\n            count++;\n        }\n    }\n    return count;\n  }\n\n  function getTransactionIds(bool _pending, bool _executed) public view returns(uint[]) {\n    uint count;\n    for(uint i = 0; i < transactionCount; i++) {\n        if(_pending && !transactions[i].transactionStatus) {\n            count++;\n        }\n        else if(_executed && transactions[i].transactionStatus) {\n            count++;\n        }\n    }\n    uint[] memory ids = new uint[](count);\n    uint idsCount = 0;\n    for(uint j = 0; j < transactionCount; j++) {\n        if(_pending && !transactions[j].transactionStatus) {\n            ids[idsCount] = j;\n            idsCount++;\n        }\n        else if(_executed && transactions[j].transactionStatus) {\n            ids[idsCount] = j;\n            idsCount++;\n        }\n    }\n    return ids;\n  }\n\n  function getOwners() public view returns(address[]) {\n      return owners;\n    }\n}\n",
  "sourcePath": "/home/cody/Desktop/ChainShot/Test/devcon/truffle/contracts/MultiSig.sol",
  "compiler": {
    "name": "solc",
    "version": "0.4.18+commit.9cf6e910.Emscripten.clang"
  },
  "schemaVersion": "1.0.1",
  "updatedAt": "2018-11-04T19:44:21.616Z"
}